{
  "contractName": "Lottery",
  "abi": [
    {
      "constant": true,
      "inputs": [],
      "name": "manager",
      "outputs": [
        {
          "name": "",
          "type": "address"
        }
      ],
      "payable": false,
      "stateMutability": "view",
      "type": "function"
    },
    {
      "constant": true,
      "inputs": [
        {
          "name": "",
          "type": "uint256"
        }
      ],
      "name": "players",
      "outputs": [
        {
          "name": "recipient",
          "type": "address"
        },
        {
          "name": "value",
          "type": "uint256"
        }
      ],
      "payable": false,
      "stateMutability": "view",
      "type": "function"
    },
    {
      "inputs": [],
      "payable": false,
      "stateMutability": "nonpayable",
      "type": "constructor"
    },
    {
      "constant": false,
      "inputs": [],
      "name": "enter",
      "outputs": [],
      "payable": true,
      "stateMutability": "payable",
      "type": "function"
    },
    {
      "constant": false,
      "inputs": [
        {
          "name": "index",
          "type": "uint256"
        }
      ],
      "name": "pickWinner",
      "outputs": [],
      "payable": false,
      "stateMutability": "nonpayable",
      "type": "function"
    },
    {
      "constant": true,
      "inputs": [],
      "name": "totalBalance",
      "outputs": [
        {
          "name": "",
          "type": "uint256"
        }
      ],
      "payable": false,
      "stateMutability": "view",
      "type": "function"
    }
  ],
  "bytecode": "0x6060604052341561000f57600080fd5b336000806101000a81548173ffffffffffffffffffffffffffffffffffffffff021916908373ffffffffffffffffffffffffffffffffffffffff1602179055506106528061005e6000396000f30060606040526004361061006d576000357c0100000000000000000000000000000000000000000000000000000000900463ffffffff168063481c6a7514610072578063ad7a672f146100c7578063e97dcb62146100f0578063f71d96cb146100fa578063f737d21d14610164575b600080fd5b341561007d57600080fd5b610085610187565b604051808273ffffffffffffffffffffffffffffffffffffffff1673ffffffffffffffffffffffffffffffffffffffff16815260200191505060405180910390f35b34156100d257600080fd5b6100da6101ac565b6040518082815260200191505060405180910390f35b6100f86101cb565b005b341561010557600080fd5b61011b6004808035906020019091905050610318565b604051808373ffffffffffffffffffffffffffffffffffffffff1673ffffffffffffffffffffffffffffffffffffffff1681526020018281526020019250505060405180910390f35b341561016f57600080fd5b610185600480803590602001909190505061036b565b005b6000809054906101000a900473ffffffffffffffffffffffffffffffffffffffff1681565b60003073ffffffffffffffffffffffffffffffffffffffff1631905090565b6101d3610525565b60408051908101604052803373ffffffffffffffffffffffffffffffffffffffff168152602001348152509050600180548060010182816102149190610555565b9160005260206000209060020201600083909190915060008201518160000160006101000a81548173ffffffffffffffffffffffffffffffffffffffff021916908373ffffffffffffffffffffffffffffffffffffffff160217905550602082015181600101555050506002600034815260200190815260200160002080548060010182816102a39190610587565b9160005260206000209001600033909190916101000a81548173ffffffffffffffffffffffffffffffffffffffff021916908373ffffffffffffffffffffffffffffffffffffffff16021790555050600360003481526020019081526020016000206000815480929190600101919050555050565b60018181548110151561032757fe5b90600052602060002090600202016000915090508060000160009054906101000a900473ffffffffffffffffffffffffffffffffffffffff16908060010154905082565b6000806000806000809054906101000a900473ffffffffffffffffffffffffffffffffffffffff1673ffffffffffffffffffffffffffffffffffffffff163373ffffffffffffffffffffffffffffffffffffffff161415156103cc57600080fd5b60026000868152602001908152602001600020935060036000868152602001908152602001600020543073ffffffffffffffffffffffffffffffffffffffff163181151561041657fe5b049250600091505b83805490508210156104b057838281548110151561043857fe5b906000526020600020900160009054906101000a900473ffffffffffffffffffffffffffffffffffffffff1673ffffffffffffffffffffffffffffffffffffffff166108fc849081150290604051600060405180830381858888f1935050505015156104a357600080fd5b818060010192505061041e565b600090505b60018054905081101561051e576001818154811015156104d157fe5b9060005260206000209060020201600080820160006101000a81549073ffffffffffffffffffffffffffffffffffffffff02191690556001820160009055505080806001019150506104b5565b5050505050565b6040805190810160405280600073ffffffffffffffffffffffffffffffffffffffff168152602001600081525090565b8154818355818115116105825760020281600202836000526020600020918201910161058191906105b3565b5b505050565b8154818355818115116105ae578183600052602060002091820191016105ad9190610601565b5b505050565b6105fe91905b808211156105fa57600080820160006101000a81549073ffffffffffffffffffffffffffffffffffffffff02191690556001820160009055506002016105b9565b5090565b90565b61062391905b8082111561061f576000816000905550600101610607565b5090565b905600a165627a7a72305820f804eb452175bf7af844eb7d1642564f4fe19566542b52c5019c1ff396cb8fe00029",
  "source": "pragma solidity ^0.4.17;\n\ncontract Lottery {\n    address public manager;\n    struct Player {\n        address recipient;\n        uint value;\n    }\n    Player[] public players;\n    \n    mapping(uint => address[]) recipientValue;\n    mapping(uint => uint) recipientValueCount;\n\n    function Lottery() public {\n        manager = msg.sender;\n    }\n    \n    function enter() public payable {\n        Player memory newPlayer = Player({\n            recipient: msg.sender,\n            value: msg.value\n        });\n        \n        players.push(newPlayer);\n        \n        recipientValue[msg.value].push(msg.sender);\n        recipientValueCount[msg.value]++;\n    }\n    \n    \n    function pickWinner(uint index) public restricted {\n        address[] storage winners = recipientValue[index];\n        uint prize = this.balance / recipientValueCount[index];\n        \n        for(uint i=0; i< winners.length; i++){\n            winners[i].transfer(prize);\n        }\n        \n        for(uint j=0; j < players.length; j++){\n            delete players[j];\n        }\n        \n    } \n    \n    function totalBalance() public view returns (uint) {\n        return this.balance;\n    }\n    \n    \n    modifier restricted() {\n        require(msg.sender == manager);\n        _;\n    }\n    \n}",
  "sourcePath": "/Users/willsputra/Desktop/projects/eth4d/contracts/Lottery.sol",
  "compiler": {
    "name": "solc",
    "version": "0.4.19+commit.c4cbbb05.Emscripten.clang"
  },
  "schemaVersion": "1.0.1",
  "updatedAt": "2018-02-21T01:39:21.326Z"
}